{
  "_format": "hh-sol-artifact-1",
  "contractName": "DeadMansSwitch",
  "sourceName": "contracts/DeadMansSwitch.sol",
  "abi": [
    {
      "inputs": [
        {
          "internalType": "address",
          "name": "_beneficiary",
          "type": "address"
        },
        {
          "internalType": "uint256",
          "name": "_checkInInterval",
          "type": "uint256"
        },
        {
          "internalType": "bool",
          "name": "_isRevocable",
          "type": "bool"
        },
        {
          "internalType": "bool",
          "name": "_isBeneficiaryChangeable",
          "type": "bool"
        },
        {
          "internalType": "bool",
          "name": "_isMessageChangeable",
          "type": "bool"
        }
      ],
      "stateMutability": "nonpayable",
      "type": "constructor"
    },
    {
      "anonymous": false,
      "inputs": [
        {
          "indexed": true,
          "internalType": "address",
          "name": "owner",
          "type": "address"
        },
        {
          "indexed": false,
          "internalType": "uint256",
          "name": "timestamp",
          "type": "uint256"
        }
      ],
      "name": "CheckIn",
      "type": "event"
    },
    {
      "anonymous": false,
      "inputs": [
        {
          "indexed": true,
          "internalType": "address",
          "name": "owner",
          "type": "address"
        },
        {
          "indexed": false,
          "internalType": "uint256",
          "name": "amount",
          "type": "uint256"
        }
      ],
      "name": "FundsDeposited",
      "type": "event"
    },
    {
      "anonymous": false,
      "inputs": [
        {
          "indexed": true,
          "internalType": "address",
          "name": "owner",
          "type": "address"
        },
        {
          "indexed": false,
          "internalType": "uint256",
          "name": "amount",
          "type": "uint256"
        },
        {
          "indexed": false,
          "internalType": "uint256",
          "name": "timestamp",
          "type": "uint256"
        }
      ],
      "name": "TriggerRevoke",
      "type": "event"
    },
    {
      "anonymous": false,
      "inputs": [
        {
          "indexed": true,
          "internalType": "address",
          "name": "beneficiary",
          "type": "address"
        },
        {
          "indexed": false,
          "internalType": "uint256",
          "name": "amount",
          "type": "uint256"
        },
        {
          "indexed": false,
          "internalType": "uint256",
          "name": "timestamp",
          "type": "uint256"
        }
      ],
      "name": "TriggerSwitch",
      "type": "event"
    },
    {
      "anonymous": false,
      "inputs": [
        {
          "indexed": false,
          "internalType": "string",
          "name": "novaPoruka",
          "type": "string"
        },
        {
          "indexed": false,
          "internalType": "string",
          "name": "staraPoruka",
          "type": "string"
        }
      ],
      "name": "UpdateMessage",
      "type": "event"
    },
    {
      "anonymous": false,
      "inputs": [
        {
          "indexed": true,
          "internalType": "address",
          "name": "beneficiary",
          "type": "address"
        },
        {
          "indexed": true,
          "internalType": "address",
          "name": "_beneficiary",
          "type": "address"
        }
      ],
      "name": "UpdatedBeneficiary",
      "type": "event"
    },
    {
      "inputs": [],
      "name": "beneficiary",
      "outputs": [
        {
          "internalType": "address",
          "name": "",
          "type": "address"
        }
      ],
      "stateMutability": "view",
      "type": "function"
    },
    {
      "inputs": [],
      "name": "checkIn",
      "outputs": [],
      "stateMutability": "nonpayable",
      "type": "function"
    },
    {
      "inputs": [],
      "name": "checkInInterval",
      "outputs": [
        {
          "internalType": "uint256",
          "name": "",
          "type": "uint256"
        }
      ],
      "stateMutability": "view",
      "type": "function"
    },
    {
      "inputs": [],
      "name": "createdAt",
      "outputs": [
        {
          "internalType": "uint256",
          "name": "",
          "type": "uint256"
        }
      ],
      "stateMutability": "view",
      "type": "function"
    },
    {
      "inputs": [],
      "name": "depositFunds",
      "outputs": [],
      "stateMutability": "payable",
      "type": "function"
    },
    {
      "inputs": [],
      "name": "encryptedMessageCID",
      "outputs": [
        {
          "internalType": "string",
          "name": "",
          "type": "string"
        }
      ],
      "stateMutability": "view",
      "type": "function"
    },
    {
      "inputs": [],
      "name": "getBalance",
      "outputs": [
        {
          "internalType": "uint256",
          "name": "",
          "type": "uint256"
        }
      ],
      "stateMutability": "view",
      "type": "function"
    },
    {
      "inputs": [],
      "name": "getMessage",
      "outputs": [
        {
          "internalType": "string",
          "name": "",
          "type": "string"
        }
      ],
      "stateMutability": "view",
      "type": "function"
    },
    {
      "inputs": [],
      "name": "isBeneficiaryChangeable",
      "outputs": [
        {
          "internalType": "bool",
          "name": "",
          "type": "bool"
        }
      ],
      "stateMutability": "view",
      "type": "function"
    },
    {
      "inputs": [],
      "name": "isMessageChangeable",
      "outputs": [
        {
          "internalType": "bool",
          "name": "",
          "type": "bool"
        }
      ],
      "stateMutability": "view",
      "type": "function"
    },
    {
      "inputs": [],
      "name": "isRevocable",
      "outputs": [
        {
          "internalType": "bool",
          "name": "",
          "type": "bool"
        }
      ],
      "stateMutability": "view",
      "type": "function"
    },
    {
      "inputs": [],
      "name": "lastCheckIn",
      "outputs": [
        {
          "internalType": "uint256",
          "name": "",
          "type": "uint256"
        }
      ],
      "stateMutability": "view",
      "type": "function"
    },
    {
      "inputs": [],
      "name": "owner",
      "outputs": [
        {
          "internalType": "address",
          "name": "",
          "type": "address"
        }
      ],
      "stateMutability": "view",
      "type": "function"
    },
    {
      "inputs": [],
      "name": "revokeContract",
      "outputs": [],
      "stateMutability": "nonpayable",
      "type": "function"
    },
    {
      "inputs": [],
      "name": "timeUntilTrigger",
      "outputs": [
        {
          "internalType": "uint256",
          "name": "",
          "type": "uint256"
        }
      ],
      "stateMutability": "view",
      "type": "function"
    },
    {
      "inputs": [],
      "name": "triggerSwitch",
      "outputs": [],
      "stateMutability": "nonpayable",
      "type": "function"
    },
    {
      "inputs": [],
      "name": "triggered",
      "outputs": [
        {
          "internalType": "bool",
          "name": "",
          "type": "bool"
        }
      ],
      "stateMutability": "view",
      "type": "function"
    },
    {
      "inputs": [
        {
          "internalType": "address",
          "name": "_beneficiary",
          "type": "address"
        }
      ],
      "name": "updateBeneficiary",
      "outputs": [],
      "stateMutability": "nonpayable",
      "type": "function"
    },
    {
      "inputs": [
        {
          "internalType": "string",
          "name": "_encryptedMessageCID",
          "type": "string"
        }
      ],
      "name": "updateMessage",
      "outputs": [],
      "stateMutability": "nonpayable",
      "type": "function"
    }
  ],
  "bytecode": "0x608060405234801561001057600080fd5b5060405161205c38038061205c833981810160405281019061003291906101f3565b33600360046101000a81548173ffffffffffffffffffffffffffffffffffffffff021916908373ffffffffffffffffffffffffffffffffffffffff1602179055504260008190555060005460028190555084600460006101000a81548173ffffffffffffffffffffffffffffffffffffffff021916908373ffffffffffffffffffffffffffffffffffffffff1602179055508360018190555082600360016101000a81548160ff02191690831515021790555081600360026101000a81548160ff021916908315150217905550806003806101000a81548160ff021916908315150217905550505050505061026e565b600080fd5b600073ffffffffffffffffffffffffffffffffffffffff82169050919050565b600061015282610127565b9050919050565b61016281610147565b811461016d57600080fd5b50565b60008151905061017f81610159565b92915050565b6000819050919050565b61019881610185565b81146101a357600080fd5b50565b6000815190506101b58161018f565b92915050565b60008115159050919050565b6101d0816101bb565b81146101db57600080fd5b50565b6000815190506101ed816101c7565b92915050565b600080600080600060a0868803121561020f5761020e610122565b5b600061021d88828901610170565b955050602061022e888289016101a6565b945050604061023f888289016101de565b9350506060610250888289016101de565b9250506080610261888289016101de565b9150509295509295909350565b611ddf8061027d6000396000f3fe6080604052600436106101145760003560e01c80637406253f116100a0578063ce6d41de11610064578063ce6d41de14610347578063cf09e0d014610372578063db78dabd1461039d578063e2c41dbc146103c8578063f312186a146103d257610114565b80637406253f14610270578063741c89071461029b5780638da5cb5b146102c6578063908dd065146102f1578063bfd25fa51461031c57610114565b806338af3eed116100e757806338af3eed146101ad5780635ffd1bad146101d857806366625bbd146102035780636cbcf0a21461021a57806372029eb91461024557610114565b80630aaffd2a1461011957806312065fe014610142578063183ff0851461016d5780631923be2414610184575b600080fd5b34801561012557600080fd5b50610140600480360381019061013b919061126d565b6103e9565b005b34801561014e57600080fd5b506101576105d8565b60405161016491906112b3565b60405180910390f35b34801561017957600080fd5b506101826105e0565b005b34801561019057600080fd5b506101ab60048036038101906101a69190611414565b610717565b005b3480156101b957600080fd5b506101c2610891565b6040516101cf919061146c565b60405180910390f35b3480156101e457600080fd5b506101ed6108b7565b6040516101fa91906114a2565b60405180910390f35b34801561020f57600080fd5b506102186108ca565b005b34801561022657600080fd5b5061022f610b5d565b60405161023c91906112b3565b60405180910390f35b34801561025157600080fd5b5061025a610b9f565b60405161026791906114a2565b60405180910390f35b34801561027c57600080fd5b50610285610bb2565b604051610292919061153c565b60405180910390f35b3480156102a757600080fd5b506102b0610c40565b6040516102bd91906114a2565b60405180910390f35b3480156102d257600080fd5b506102db610c53565b6040516102e8919061146c565b60405180910390f35b3480156102fd57600080fd5b50610306610c79565b60405161031391906114a2565b60405180910390f35b34801561032857600080fd5b50610331610c8a565b60405161033e91906112b3565b60405180910390f35b34801561035357600080fd5b5061035c610c90565b604051610369919061153c565b60405180910390f35b34801561037e57600080fd5b50610387610e01565b60405161039491906112b3565b60405180910390f35b3480156103a957600080fd5b506103b2610e07565b6040516103bf91906112b3565b60405180910390f35b6103d0610e0d565b005b3480156103de57600080fd5b506103e7610f65565b005b600360049054906101000a900473ffffffffffffffffffffffffffffffffffffffff1673ffffffffffffffffffffffffffffffffffffffff163373ffffffffffffffffffffffffffffffffffffffff1614610479576040517f08c379a0000000000000000000000000000000000000000000000000000000008152600401610470906115aa565b60405180910390fd5b600360009054906101000a900460ff16156104c9576040517f08c379a00000000000000000000000000000000000000000000000000000000081526004016104c090611616565b60405180910390fd5b600360029054906101000a900460ff16610518576040517f08c379a000000000000000000000000000000000000000000000000000000000815260040161050f906116a8565b60405180910390fd5b8073ffffffffffffffffffffffffffffffffffffffff16600460009054906101000a900473ffffffffffffffffffffffffffffffffffffffff1673ffffffffffffffffffffffffffffffffffffffff167f786862cece610c6dd2e40817f1fea4e21fd9bbec14757eb143a5de172e5c462560405160405180910390a380600460006101000a81548173ffffffffffffffffffffffffffffffffffffffff021916908373ffffffffffffffffffffffffffffffffffffffff16021790555050565b600047905090565b600360049054906101000a900473ffffffffffffffffffffffffffffffffffffffff1673ffffffffffffffffffffffffffffffffffffffff163373ffffffffffffffffffffffffffffffffffffffff1614610670576040517f08c379a0000000000000000000000000000000000000000000000000000000008152600401610667906115aa565b60405180910390fd5b600360009054906101000a900460ff16156106c0576040517f08c379a00000000000000000000000000000000000000000000000000000000081526004016106b790611616565b60405180910390fd5b426000819055503373ffffffffffffffffffffffffffffffffffffffff167fa864a8b988e604bb05d6ce75d53efabb5620c45b15380b7bd0c51dcfa71dda034260405161070d91906112b3565b60405180910390a2565b600360049054906101000a900473ffffffffffffffffffffffffffffffffffffffff1673ffffffffffffffffffffffffffffffffffffffff163373ffffffffffffffffffffffffffffffffffffffff16146107a7576040517f08c379a000000000000000000000000000000000000000000000000000000000815260040161079e906115aa565b60405180910390fd5b600360009054906101000a900460ff16156107f7576040517f08c379a00000000000000000000000000000000000000000000000000000000081526004016107ee90611616565b60405180910390fd5b60038054906101000a900460ff16610844576040517f08c379a000000000000000000000000000000000000000000000000000000000815260040161083b90611714565b60405180910390fd5b7f72509cb1827c1f708c15974ef6a2db102be98f5a40f067c96a4e5ef4078030c560058260405161087692919061182d565b60405180910390a1806005908161088d91906119fb565b5050565b600460009054906101000a900473ffffffffffffffffffffffffffffffffffffffff1681565b600360019054906101000a900460ff1681565b600360049054906101000a900473ffffffffffffffffffffffffffffffffffffffff1673ffffffffffffffffffffffffffffffffffffffff163373ffffffffffffffffffffffffffffffffffffffff161461095a576040517f08c379a0000000000000000000000000000000000000000000000000000000008152600401610951906115aa565b60405180910390fd5b600360019054906101000a900460ff166109a9576040517f08c379a00000000000000000000000000000000000000000000000000000000081526004016109a090611b3f565b60405180910390fd5b600360009054906101000a900460ff16156109f9576040517f08c379a00000000000000000000000000000000000000000000000000000000081526004016109f090611616565b60405180910390fd5b6001600360006101000a81548160ff02191690831515021790555060004790506000600360049054906101000a900473ffffffffffffffffffffffffffffffffffffffff1673ffffffffffffffffffffffffffffffffffffffff1682604051610a6190611b90565b60006040518083038185875af1925050503d8060008114610a9e576040519150601f19603f3d011682016040523d82523d6000602084013e610aa3565b606091505b5050905080610ae7576040517f08c379a0000000000000000000000000000000000000000000000000000000008152600401610ade90611bf1565b60405180910390fd5b600360049054906101000a900473ffffffffffffffffffffffffffffffffffffffff1673ffffffffffffffffffffffffffffffffffffffff167f7f1d6c07e5a2631c69f1f16ad551cfc5ffb50b78c30a0376cb9386232b4c5b868342604051610b51929190611c11565b60405180910390a25050565b6000600154600054610b6f9190611c69565b4210610b7e5760009050610b9c565b42600154600054610b8f9190611c69565b610b999190611c9d565b90505b90565b600360029054906101000a900460ff1681565b60058054610bbf90611763565b80601f0160208091040260200160405190810160405280929190818152602001828054610beb90611763565b8015610c385780601f10610c0d57610100808354040283529160200191610c38565b820191906000526020600020905b815481529060010190602001808311610c1b57829003601f168201915b505050505081565b600360009054906101000a900460ff1681565b600360049054906101000a900473ffffffffffffffffffffffffffffffffffffffff1681565b60038054906101000a900460ff1681565b60015481565b6060600460009054906101000a900473ffffffffffffffffffffffffffffffffffffffff1673ffffffffffffffffffffffffffffffffffffffff163373ffffffffffffffffffffffffffffffffffffffff1614610d22576040517f08c379a0000000000000000000000000000000000000000000000000000000008152600401610d1990611d1d565b60405180910390fd5b600360009054906101000a900460ff16610d71576040517f08c379a0000000000000000000000000000000000000000000000000000000008152600401610d6890611d89565b60405180910390fd5b60058054610d7e90611763565b80601f0160208091040260200160405190810160405280929190818152602001828054610daa90611763565b8015610df75780601f10610dcc57610100808354040283529160200191610df7565b820191906000526020600020905b815481529060010190602001808311610dda57829003601f168201915b5050505050905090565b60025481565b60005481565b600360049054906101000a900473ffffffffffffffffffffffffffffffffffffffff1673ffffffffffffffffffffffffffffffffffffffff163373ffffffffffffffffffffffffffffffffffffffff1614610e9d576040517f08c379a0000000000000000000000000000000000000000000000000000000008152600401610e94906115aa565b60405180910390fd5b600360009054906101000a900460ff1615610eed576040517f08c379a0000000000000000000000000000000000000000000000000000000008152600401610ee490611616565b60405180910390fd5b6000349050600360049054906101000a900473ffffffffffffffffffffffffffffffffffffffff1673ffffffffffffffffffffffffffffffffffffffff167f543ba50a5eec5e6178218e364b1d0f396157b3c8fa278522c2cb7fd99407d47482604051610f5a91906112b3565b60405180910390a250565b600460009054906101000a900473ffffffffffffffffffffffffffffffffffffffff1673ffffffffffffffffffffffffffffffffffffffff163373ffffffffffffffffffffffffffffffffffffffff1614610ff5576040517f08c379a0000000000000000000000000000000000000000000000000000000008152600401610fec90611d1d565b60405180910390fd5b600360009054906101000a900460ff1615611045576040517f08c379a000000000000000000000000000000000000000000000000000000000815260040161103c90611616565b60405180910390fd5b6001546000546110559190611c69565b421015611097576040517f08c379a000000000000000000000000000000000000000000000000000000000815260040161108e90611d1d565b60405180910390fd5b6001600360006101000a81548160ff02191690831515021790555060004790506000600460009054906101000a900473ffffffffffffffffffffffffffffffffffffffff1673ffffffffffffffffffffffffffffffffffffffff16826040516110ff90611b90565b60006040518083038185875af1925050503d806000811461113c576040519150601f19603f3d011682016040523d82523d6000602084013e611141565b606091505b5050905080611185576040517f08c379a000000000000000000000000000000000000000000000000000000000815260040161117c90611bf1565b60405180910390fd5b600460009054906101000a900473ffffffffffffffffffffffffffffffffffffffff1673ffffffffffffffffffffffffffffffffffffffff167f76995ae7e22d41e5221f4a28a2d62a7a9d875869bc55076d873a7e982657e3d883426040516111ef929190611c11565b60405180910390a25050565b6000604051905090565b600080fd5b600080fd5b600073ffffffffffffffffffffffffffffffffffffffff82169050919050565b600061123a8261120f565b9050919050565b61124a8161122f565b811461125557600080fd5b50565b60008135905061126781611241565b92915050565b60006020828403121561128357611282611205565b5b600061129184828501611258565b91505092915050565b6000819050919050565b6112ad8161129a565b82525050565b60006020820190506112c860008301846112a4565b92915050565b600080fd5b600080fd5b6000601f19601f8301169050919050565b7f4e487b7100000000000000000000000000000000000000000000000000000000600052604160045260246000fd5b611321826112d8565b810181811067ffffffffffffffff821117156113405761133f6112e9565b5b80604052505050565b60006113536111fb565b905061135f8282611318565b919050565b600067ffffffffffffffff82111561137f5761137e6112e9565b5b611388826112d8565b9050602081019050919050565b82818337600083830152505050565b60006113b76113b284611364565b611349565b9050828152602081018484840111156113d3576113d26112d3565b5b6113de848285611395565b509392505050565b600082601f8301126113fb576113fa6112ce565b5b813561140b8482602086016113a4565b91505092915050565b60006020828403121561142a57611429611205565b5b600082013567ffffffffffffffff8111156114485761144761120a565b5b611454848285016113e6565b91505092915050565b6114668161122f565b82525050565b6000602082019050611481600083018461145d565b92915050565b60008115159050919050565b61149c81611487565b82525050565b60006020820190506114b76000830184611493565b92915050565b600081519050919050565b600082825260208201905092915050565b60005b838110156114f75780820151818401526020810190506114dc565b60008484015250505050565b600061150e826114bd565b61151881856114c8565b93506115288185602086016114d9565b611531816112d8565b840191505092915050565b600060208201905081810360008301526115568184611503565b905092915050565b7f4e696a6520766c61736e696b0000000000000000000000000000000000000000600082015250565b6000611594600c836114c8565b915061159f8261155e565b602082019050919050565b600060208201905081810360008301526115c381611587565b9050919050565b7f537769746368206a6520766563206f6b696e7574000000000000000000000000600082015250565b60006116006014836114c8565b915061160b826115ca565b602082019050919050565b6000602082019050818103600083015261162f816115f3565b9050919050565b7f4e696a6520646f7a766f6c6a656e612070726f6d656e61206e61736c65646e6960008201527f6b61000000000000000000000000000000000000000000000000000000000000602082015250565b60006116926022836114c8565b915061169d82611636565b604082019050919050565b600060208201905081810360008301526116c181611685565b9050919050565b7f4e696a6520646f7a766f6c6a656e612070726f6d656e6120706f72756b650000600082015250565b60006116fe601e836114c8565b9150611709826116c8565b602082019050919050565b6000602082019050818103600083015261172d816116f1565b9050919050565b7f4e487b7100000000000000000000000000000000000000000000000000000000600052602260045260246000fd5b6000600282049050600182168061177b57607f821691505b60208210810361178e5761178d611734565b5b50919050565b60008190508160005260206000209050919050565b600081546117b681611763565b6117c081866114c8565b945060018216600081146117db57600181146117f157611824565b60ff198316865281151560200286019350611824565b6117fa85611794565b60005b8381101561181c578154818901526001820191506020810190506117fd565b808801955050505b50505092915050565b6000604082019050818103600083015261184781856117a9565b9050818103602083015261185b8184611503565b90509392505050565b60006020601f8301049050919050565b600082821b905092915050565b6000600883026118b17fffffffffffffffffffffffffffffffffffffffffffffffffffffffffffffffff82611874565b6118bb8683611874565b95508019841693508086168417925050509392505050565b6000819050919050565b60006118f86118f36118ee8461129a565b6118d3565b61129a565b9050919050565b6000819050919050565b611912836118dd565b61192661191e826118ff565b848454611881565b825550505050565b600090565b61193b61192e565b611946818484611909565b505050565b5b8181101561196a5761195f600082611933565b60018101905061194c565b5050565b601f8211156119af5761198081611794565b61198984611864565b81016020851015611998578190505b6119ac6119a485611864565b83018261194b565b50505b505050565b600082821c905092915050565b60006119d2600019846008026119b4565b1980831691505092915050565b60006119eb83836119c1565b9150826002028217905092915050565b611a04826114bd565b67ffffffffffffffff811115611a1d57611a1c6112e9565b5b611a278254611763565b611a3282828561196e565b600060209050601f831160018114611a655760008415611a53578287015190505b611a5d85826119df565b865550611ac5565b601f198416611a7386611794565b60005b82811015611a9b57848901518255600182019150602085019450602081019050611a76565b86831015611ab85784890151611ab4601f8916826119c1565b8355505b6001600288020188555050505b505050505050565b7f4e696a6520646f7a766f6c6a656e6f207261736b6964616e6a652075676f766f60008201527f7261000000000000000000000000000000000000000000000000000000000000602082015250565b6000611b296022836114c8565b9150611b3482611acd565b604082019050919050565b60006020820190508181036000830152611b5881611b1c565b9050919050565b600081905092915050565b50565b6000611b7a600083611b5f565b9150611b8582611b6a565b600082019050919050565b6000611b9b82611b6d565b9150819050919050565b7f5472616e73666572206e696a6520757370656f00000000000000000000000000600082015250565b6000611bdb6013836114c8565b9150611be682611ba5565b602082019050919050565b60006020820190508181036000830152611c0a81611bce565b9050919050565b6000604082019050611c2660008301856112a4565b611c3360208301846112a4565b9392505050565b7f4e487b7100000000000000000000000000000000000000000000000000000000600052601160045260246000fd5b6000611c748261129a565b9150611c7f8361129a565b9250828201905080821115611c9757611c96611c3a565b5b92915050565b6000611ca88261129a565b9150611cb38361129a565b9250828203905081811115611ccb57611cca611c3a565b5b92915050565b7f4e696a65206e61736c65646e696b000000000000000000000000000000000000600082015250565b6000611d07600e836114c8565b9150611d1282611cd1565b602082019050919050565b60006020820190508181036000830152611d3681611cfa565b9050919050565b7f537769746368206e696a65206f6b696e75740000000000000000000000000000600082015250565b6000611d736012836114c8565b9150611d7e82611d3d565b602082019050919050565b60006020820190508181036000830152611da281611d66565b905091905056fea26469706673582212207758a1c980d181d6fee4130030bc6242053c77b5017ca25376df793268c2f8fa64736f6c634300081c0033",
  "linkReferences": {},
  "deployedLinkReferences": {}
}